:400000000040002011000000190300001903000008B500F083F90000F8B572B63D4D80260024F6002C60211C321C3B4800F06CFE211C321C394800F067FE394B01261E7041
:40004000384B394A1E70394B80211C60384B09061C6099231B041360364A3C201160364A02211360354B364F1A780A431A70354A117881431420014311701A7816210A4343
:400080001A70314AC0231360B021304AC90311602F4A8021090211602E4A13602E4BD82212041A6012233B6000F0AAFB2B4800F06BFB301C00F0B0FB0C2000F0DFFB284A5C
:4000C000284B294E1A608022284BD20532601A6802210A431A60264A264BFA201A602B68082293432B60C00000F05AFC224800F0BBFB224B802212061A608023DB05204A7B
:40010000336003233C6013601E4A13601E4B1C60F8BDC0466CF02E4000300F4000400F4002600F4011600F4020500F40000002400800044024500F4030500F4000700F4095
:400140003000104001700F4000020440080204400C0204400003044008030440001BB7000600008004010B400C020B4078002E402D3E00007C002E40DC05000008010B4052
:400180003000304030003140000E3F4010B5064C2378002B07D1054B002B02D0044800E000BF0123237010BDE803002000000000C401010008B5084B002B03D00748084981
:4001C00000E000BF07480368002B03D0064B002B00D0984708BDC04600000000C4010100EC030020C80000200000000008B5064B1B78022B04D1054B0549187808F08AF9A9
:4002000000F06CFA08BDC046E6240020E7240020CC00002038B5041E262C10D0262809D8012846D1002000F005F9201C00F086FA201C2FE028280AD0712815D039E01D4B7E
:400240001B78042B35D1002000F0F4F831E0002000F0F0F8012000F071FA012000F07AFA012000F083FA24E00C78002C16D1012000F064FA104B1D78002D07D1012018707A
:4002800000F074FA281C00F065FA12E0012D10D11C70281C00F05EFA201CE2E7012C08D1201C00F057FA201C00F060FA002000F045FA38BDE62400200404002038B562B68B
:4002C000134800F08BF8134800F026FA00F02CFD032000F021FD051C00F05FFA041C032D0BD101F0D2FF042802D100F091FB0AE001F0CBFF062806D1F7E701F0C6FF022840
:4003000001D000F077FB201C00F04BFADEE7C04615020000ED010000FEE7000070B51048104B0138421C15D01E685C689D680022A118AA4203D0B158A1500432F8E7DA68D6
:400340000D1C4C1B944202D0002410C1F9E710330138E7E700F09AFCFFF7B0FFFEE7C04601000000540501000E4A0121136810B58B431360141C00239A00032B02D80A4972
:40038000895800E009490A4801338150302BF3D1FFF742FE074B00221A60236801221343236010BD00001040000000001903000000000020C0000020054A08B5002313701E
:4003C000044A1370044A137000F086F908BDC046EB240020E9240020EA24002038B5104C051C2378002B03D1FFF7E6FF01232370002D12D00B4B211C08310B4817221D601D
:4004000000F0A8FC002809D1084B01221A701E211A2207480BF024FB00E0012038BDC04608040020E024002005050000E624002000020100184B10B51B78042B29D1174C78
:4004400022781A4225D1164B002808D11A1C50321E2111805A6C2021118030210BE001280AD11A1C5032962111805A6CC821C90011808021C90151800A4A1070181C403011
:4004800009F05CFD002806D1237804221343237001E08320400010BDE6240020EB240020D4000020EA240020437800781B0218437047000038B58389041C00250B2B1AD174
:4004C000291C0430221C40230BF0E2FA051E0DD16068FFF7E9FF094B1B68820702D58220400001E00620FF30211C9847044B01211A788A431A70281C38BDC046E02400203C
:40050000EB240020F7B5664D0E1C2B7801210B43041C2B70272852D00AD805283DD002D8884222D0ADE021283BD026285BD0A8E0422800D183E013D8282852D0412800D0FC
:400540009FE0584F311C381C022200F0D4FB3978554B490059180222544800F0CCFB90E0432870D04C2876D08BE001AF08233B70381C00237B7001F0B7FE381C7C7001F050
:40058000B3FE4B4B18688379002B1BD1C25C002A22D10133062BF9D114E03278454B1A706FE02B789A066CD443490B78102B01D10523CB703B4B187809F08AFC61E00222F4
:4005C0003E4BECE73E4B3F481B7803703E4B1B7843703E4B1B78837000F0AAFB032009F06FFB0422ECE7354B1F78022F49D02A7801210A4245D029780422114203D0032100
:4006000019702B7807E02B781A0707D52B4904230B702B78082293432B7032E0032F30D1264A042313702A4B1B78002B29D10120FFF700FF002824D1204B1F7021E0194B95
:4006400000225A70ABE77188162900D9172130880AF098FD15E0301CFFF72CFF2B7801210B420ED1002809D001A912238B70B389C87030680B800AF079FD02E030680AF0C3
:40068000C9FD2A7811231A4208D02B78012293432B70104B201C1B68311C9847F7BDC046EB240020E724002080040100E424002038010020E9240020A5010020E6240020B6
:4006C0007CF1FF0F3C0100207DF1FF0F7BF1FF0FEA240020E024002070470000034B7F2218689043C0B21860C00970471002044038B5041C00F051F8054B06491D68A20510
:400700002C1C0C4014431C6000F04BF838BDC04600E400E0FFFF3FFF054B10B504241C60044B98640120FFF7E3FF034B1C6010BD80E100E00000002000E100E0044B4022BD
:40074000196880019143C9B202400A431A60704700020440044B4022196880019143C9B202400A431A60704700030440044B7F2219681140C201081C1043C0B2186070477C
:4007800000030440000000000230800803D00138FDD1C046C046C0467047EFF3108072B6704780F310887047084B01221968302091431960064B196881431020014319606B
:4007C0001968072081430A431A60704700F02E4000FF2E4038B5041CFFF7DFFF064B07221D6806491440E2042C1C0C4014431C60FFF7D7FF38BDC04600010B40FFFFC7FF9D
:4008000008B5FFF7D1FF034B8022196812060A431A6008BD00F02E40114B70B51C680122011C1440002815D0904216D11A68022082431A600B4A07261568B54328431060AE
:4008400010683025A8432025284310601A681143196003E0FFF7A8FF00E001BE201C70BD00F02E4000FF2E4008B5034B1B7A5843FFF78AFF08BDC046AC010020F0B5C11E28
:4008800085B0041C02912D2961D8324B1B78984204D8314B1D78314BEDB21EE0304B1B78984204D82F4B1D782F4BEDB215E02F4B1B78984204D82E4B1D782E4BEDB20CE01B
:4008C0002D4B1B78984204D82C4B1D782C4BEDB203E02C4B1D782C4BEDB22C4E029A1B78B25CDBB200930192FFF757FF019B0390274E2F2B04D92A2C02D91927376007E090
:40090000376801993F231F40B94204D2204B19600520FFF739FF1C4A1E4BA41822780099D2B21A601C4B05201D601C4B1960FFF79BFF019ABA4206D9029A144905208B5C05
:400940003360FFF721FF0398FFF72BFF00E001BE05B0F0BDC0F1FF0FC1F1FF0FC2F1FF0FC3F1FF0FC4F1FF0FC5F1FF0FC6F1FF0FC7F1FF0FC8F1FF0FC9F1FF0FCAF1FF0FA6
:40098000CBF1FF0FCCF1FF0FCDF1FF0F000501002CFF0B4028FF0B401CFF0B4020FF0B400F4B01211A6810B50A431A600D4A0E4B041C1A600D4B8022196812020A431A60EE
:4009C000002801D100200AE00120FFF74DFF084B1B68DA07F6D4013C002CF5D1102010BD60F02E400220000078002E4010002E400C002E4008B5FFF7D0FE044B04211A68AE
:400A00008A431A6030BFFFF7CCFE08BD10ED00E037B5FFF7C2FE0E4B04211A680D4C520052081A600C4B051C1A880C4B92B21A600B4B02201A680A431A6023680193FFF7F8
:400A4000C9FE30BF019B281C2360FFF7AAFE37BD00000B4000010B4052F1FF0F0C000B4010ED00E0016070470160704708B5FFF7FBFE08BD08B500F045F808BD08B500F0B2
:400A800049F808BD08B500F045F8034800F00EF8002000F011F808BD250B000008B5024800F01CF808BDC046250B0000014B18677047C0460000002010B5041CFFF76DFE03
:400AC000054BA2011968C024A1430C1C14431C60FFF767FE10BDC0460CE400E010B5064B802464011C60054B18670020FFF7E4FF034B1C6010BDC04680E100E00000002060
:400B000000E100E0024B802252011A607047C04600E100E0024B802252011A607047C04680E100E008B50FF039FB08BD002934D00123002210B488422CD301242407A14218
:400B400004D2814202D209011B01F8E7E400A14204D2814202D249005B00F8E7884201D3401A1A434C08A04202D3001B5C0822438C08A04202D3001B9C082243CC08A042E3
:400B800002D3001BDC082243002803D01B0901D00909E3E7101C10BC7047002801D00020C04307B4024802A14018029003BDC046D90000000029F0D003B5FFF7B9FF0EBC1B
:400BC0004243891A1847C046002941D010B4041C4C40A44601230022002900D54942002800D5404288422CD301242407A14204D2814202D209011B01F8E7E400A14204D27B
:400C0000814202D249005B00F8E7884201D3401A1A434C08A04202D3001B5C0822438C08A04202D3001B9C082243CC08A04202D3001BDC082243002803D01B0901D00909F6
:400C4000E3E7101C6446002C00D5404210BC7047002806D003DB0020C043400801E08020000607B4024802A14018029003BDC046190000000029EBD003B5FFF7A7FF0EBC8D
:400C80004243891A1847C0467047C04670B50E4B0E4D0024ED1AAD101E1CAC4204D0A300F35898470134F8E70FF042FC084B094D0024ED1AAD101E1CAC4204D0A300F35894
:400CC00098470134F8E770BD3C0501003C0501003C0501004405010030B50023934208D0C55C0133CC18013C2478A542F6D0281B00E0002030BD10B50023934203D0CC5C68
:400D0000C4540133F9E710BD031C8218934202D019700133FAE7704710B501F063FA10BD10B501F075FA10BD10B500F0DBF810BD10B50749044609780220002907D1204675
:400D400001F08CFA002802D1204609F0A3F810BDCE020020F7B51F4E0024307815460F46002804D00824B76075802046FEBD002F00D1012401F04CFA0098002805D0172D2B
:400D800003D301204002854201D90124EBE7002CE9D12946384600F023F80400E3D1706800F01CF80400DED1706800F015F80400D9D101F035FA0400D5D1009806F060FB07
:400DC0000400D0D106F072FB0400CCD101203070C9E70000BC0100200020704700207047F8B50D4607460026FFF758FEFFF746FE00F03EFA040065D100F0C8FB040061D10A
:400E00003449084600F0D0FD0404240C5AD1A80705D0A807800F0421081A401985B2172D02D968002E3886B22B48301881B2384601F0BCF8040045D1284F034602460028AE
:400E400025D127495E008E5B294610318E4207D99000C01941800221521C4170D2B215E08E420BD10020787690001D49C0194680891FC95C891C4170012012E0052A06D1F5
:400E8000164806461436418302207071012014495E008E5B9100C9194E80114EB61FF65C4E705B1C521CDBB2D2B2062BC7D30B4800F06CF8002C05D100F084F807490120E6
:400EC000891E087000F0E6F9002C01D0FF20F8BD0020F8BDF90E0000940C0000CA0100208605010010B503480078012801D100F0EDFE10BDC80100207047000010B5011F90
:400F00000878034A8000105800F0F0FF10BD0000A810002010B5044604498000085800F053FF002801D00470001D10BDA810002038B5044692B2C9B2684600F06BFF024A81
:400F4000A1000098505038BDA810002070B50B49064600204C6805466178002908D06188B14202D32078FFF7D5FF002804D1241D6D1CEDB2082DEFD370BD0000EC01002063
:400F800010B5002801D0FFF7B9FF10BD70B50B4E0446002570606178002905D062882078121D0023FFF7C4FF6D1C241DEDB2082DF1D3024800F0ECFFB06070BDEC01002006
:400FC000002070471CB5002469460C70142001902346054A05480CF0CDFC04480068401C00D1FF2420461CBD41100000F80100203EB5124A0146FF2000230124126800291E
:401000000DD0012914D0042908D104206946009308814B8110460CF0A8FC80B23EBD6846009304814381694610460CF099FCF4E768460093048143816946EBE7F8010020C2
:4010400070B54589046841680089030000F026F806240408081D2124002005F0E9F91BE0022908D0C8B22A4621460AF06FFF2046FFF786FF10E002202A4621460AF066FF57
:401080002946204600F018F806E000200CF066F902E020460CF0F4FC002070BD30B47446641E2578641CAB4200D21D46635D5B00E31830BC18470000014B0022DB681847A9
:4010C000FC01002010B542890168094B00899C68022803D0032804D0FF2010BD0023012003E0121D002392B20220A047002010BDFC010020704700000248002141600180FD
:4011000041807047FC01002070B50C46002186B016460391012802D0022859D116E003A9012006F0E8F801281BD1039D324621462846FFF7E0FD0095287801900220694608
:4011400008814E816846FFF7BDFF41E0214D002B686809D0049004A9022006F0CCF801281DD0022006B070BD002812D0298840182146FFF7C0FD28880024801980B22880A8
:401180006988091D884206D12C801348FFF79AFF03E00320E6E788421AD96C6018E004986860E278A378110219430B4A698000231060E3565360032313815181A1788170F2
:4011C000E178C1706178417021780170042028800020C7E7FC010020C8100020F7B5022784B016460546022802D0042D29D106E005980090019568460781428113E0104660
:40120000FFF7A4FE040016D032460599FFF773FD68460195009407810B4B4681DB6800223146059898470948694600680CF09DFB012007B0F0BD044B0022DB683146059892
:4012400098470020F5E70000FC010020F8010020014AD16090607047FC010020034801688068081A0A21484300097047D410002010B5FFF707FC542204490548FFF73BFDE9
:4012800003490120C870002010BD0000960501002413002010B5FFF7EDFB10BD70B5134C2368002B08D0207B1149C20705D04008400020738868A08070BD88680B4AA188CE
:4012C00080B29268814203D90A4D691A091802E0814202D2411A5118A160A080A0689842EAD300F015F80CF05DFB70BDD4100020C0102E40FFFF000010B508461946FFF705
:40130000A7FF10BD704710B5FFF768FF10BD000003480021016041608160C16070470000D410002010B502000DD0FFF7F1FF074C0321207B0843207310010A21FFF73AFC87
:401340002060002010BDFF2010BD0000D410002000B504480A21806848430209FFF7D8FF104600BDD41000200248007B8007C00F70470000D410002070B55849086800284E
:4013800002DA574B01221A70022290430860554800695249C00B4031096A08426CD0012000F0BEFA4F4850497C30FFF75DFB4B480E216C30FFF758FB4A4820218430FFF7B6
:4013C00053FB484814219C30FFF74EFB4548FF21C131A430FFF748FB4248FF212F31B030FFF742FB3F484149BC30FFF73DFB3D483F49AC30FFF738FB3D493A48491CB43078
:40140000FFF732FB37483B49B830FFF72DFB35483949CC30FFF728FB324838490830FFF723FB30483649A830FFF71EFB2D4835498830FFF719FB2B4833498C30FFF714FBE2
:4014400028481921C9029030FFF70EFB2F4D287E697E0C020443A87FE97F2D4A090201432C48914201D1072C08D035229201914208D1042C05D005E0FF2070BD0146042426
:4014800000E0014617486C30FFF7EEFA154821467430FFF7E9FAA87EE97E0902014301204003814201D0002900D11B490D487830FFF7DAFA2A7F687F0102184811438142E8
:4014C00004D01748814201D0052901D113490A3904488030FFF7C8FA002070BD00F02E400C02002000002E4055650000320300002F3F00003102000010520000EC16000097
:40150000FA12000031D000003AE30000C0F0FF0F580B0000580D0000022000000F0F00000505000070B50646581C80B245086D00002408E0304600F07FF81055000A11195E
:40154000A41C4870A4B2AC42F4D3D80705D0D0182038D15CC47FD454C17770BD30B50A4C002100195B1E07E0541864782502545C2C430480891C89B29942F5DB994201D1D8
:40158000515C018030BD000000102E4010B5FF2000F0C6F90F49FF2088700E481021801D41800121417001700A490020091D4870FFF7E2FE04000AD100F0DAF80721064829
:4015C000FFF750FA044807211830FFF74BFA204610BD00000C020020CC112E4030B504465B1C1804450C002308E0204600F024F8241D59005B1CA4B250529BB2AB42F4D36E
:4016000030BD000070B500210A4D5B1E0AE0541864782602545C344346193480001D891C80B289B29942F2DB994202D1515C4019018070BD00102E4001494018008870477B
:4016400000102E40014A80180180704700102E4010B508490020487000F08AF807210648FFF700FA044807211830FFF7FBF9002010BD000010020020CC112E4010B506486A
:401680000078012803D102210448FFF7EDF902490020091F087010BD1002002070F02E4010B50B46062812D006DC01280CD0032801D1FFF7CDFF10BD0A28FCD00B28FAD1FD
:4016C00005480078107010BDFFF760FF10BD1146184600F057F910BD12020020F8B5214DAC6A0127A007204E002818DA3078062810D1286A384328621C480069F9030843D6
:4017000081B21A481030FFF7AFF9301F4770042000F006F9134802212830FFF7A3F9E00711D0062000F0FCF80F49FF20091F88707078002802D1686B3843686309480121DD
:401740002830FFF78FF9E0050BD53078042802D1052000F0E5F80348FF2101312830FFF781F9F8BD40F02E401002002000002E4010B503212348FFF777F90120FFF776F99D
:4017800020483038406A204C80076178800F890001431C480C38FFF767F96078002808D0401E022181401820FFF764FAC000083800E0B82081B21548FFF756F913480321D7
:4017C00009021438FFF750F910481149B830FFF74BF9452189010F48FFF746F90D480321001FFFF741F90C490C48FFF73DF90B480B496038FFF738F9084801218838FFF7D8
:4018000033F910BD70F02E4012020020D8102E4090890000041E2E40FF0F000058122E4020900000044800684007400F022801D0002070470120704700010B4000B5FFF72D
:40184000F1FF002805D009480168C908C900016000BD0748016A490849000162054801690122D2039143016100BD000000010B4040F02E4000002E400849087806280BD17D
:4018800048780749002803D1486B400840004863C86A01221043C862704700001002002040F02E4001480078704700001002002002488078022800D0012070470C020020F1
:4018C00000B50300FFF7EAFB080D050D0B070507090D012000BD032000BD042000BD022000BDFF2000BD0000074A9168D26889B2064B92B2994204D105498A4201D101218E
:4019000000E000210170704780002E4033D000003FE3000001494870704700001002002010B50446FFF7AAF8072C01D9FF2C01D102480470FFF79EF810BD00001002002086
:4019400001498870704700000C02002010B50A4A141D012808D009491046FFF785F808492046FFF781F810BD04491046891CFFF77BF80349491DF3E788002E4031D00000B3
:401980003AE300000078074AFF2803D04C2804D9553803E01078087070474F3808701070704700000F02002010B50F4A002313600E4A13600E4B18600E4801600E490120E9
:4019C00008600E490860000290600E490C4808600D4914300860FF381538506000F0BCF800F0CAF9002010BD30020020180200204402002048020020340200202402002049
:401A0000E4110020280200203C020020014610B50020002910D0094B1A689C685118A14209D25868196080188A0704D08A07920F891A091D196010BD002010BD1802002015
:401A4000F8B50024164E671E321F3D463168136806E01422624310328A58521C1BD0641C9C42F6D36A1C14D02C461422544322460C3288500C214843FFF7C8FF3168002802
:401A800008510AD031680020103408517068401C70602846F8BD2546E4E73846F8BD000028020020F3B50026F64381B000281BDB1E490968884217D80299002914D01B4FCA
:401AC000142204463F1D54432546396810354859401C09D0FEF7D2FF38682F1F4159C359994203DBFEF7C6FF3046FEBD214608310091465801590C20704308180C2202994D
:401B0000FFF7F9F80948761C001D0068C159B14200D100260549009A091D865008684159491C4151FEF7A6FF0020FEBD24020020002803DB07490968884202D90020C04323
:401B4000704704491422091D09685043103008587047000024020020F0B500200D4A451E0346171F50600FE014260146714314680E1DA3510C4616680834335116680834AD
:401B800035511468401C635039688842ECD30020F0BD000028020020F3B50026F64381B0002841DB2349096888423DD8029900293AD0204F142204463F1D544325463968DF
:401BC00010354859401C2FD0FEF758FF3868415900292BD0211D009146580C21005971430F46C1190C220298FFF785F811480021001D0068761C00590C34C01901604160E4
:401C000081600C48001D00680159B14200D100260849009A091D865008684159491E4151FEF728FF0020FEBD3046FEBDFEF722FFFAE7000024020020FEB504460D460020E7
:401C40001E49089E0860471E009001900290002C11D0486885420ED2002A0CD0002E0AD0642E08D808460C3001681C2068430C18207A002801D03846FEBD012022602072F4
:401C80001846FFF7DDFE6060401C13D06681A6810A4827610C3067610179A94200D205710021684601810A462846029B00F040F82846FEBD00202072DDE700003002002098
:401CC00038B50124009400F039F838BDFEB50027164EFF433D4600240EE01C20316860430818017A002906D04068FFF721FF002801D0254603E0641C3079A042EDDA681CA6
:401D000012D01C2130684D434419FEF7B7FE69466068FFF741FF0546FEF7ACFE002DD9D1216868468847D5E7FEBD00003C02002038B50024009400F001F838BD1FB5002293
:401D40000C49541E0A60002811DB496888420ED808491C220C31096850430818406801A9FFF7A0FE401C02D0002004B010BD2046FBE7000030020020F0B50021114A4D1EF2
:401D8000174611710C3F0B46BD6016E008461C2460431668041D355114680646235014680836A3551468361DA353044616680A34335318301468491C255078688142E5D308
:401DC0000020F0BD3C02002038B500210091002811DB0F49097888420DDA0D4D04010C3529680859002807D0201D0818694600F05FF9002801D0002038BDFEF73FFE2868C6
:401E00000F34015D491E0155FEF734FE009838BD4C020020F7B582B00025ED43029800240E460560002A49D0002E47D02D48D21C02402D48174601780C30006805E0220154
:401E40008258002A0FD0641CE4B28C42F7D3691C3ED02C01211D40180191314600F016F900282BD101E02546F1E71F480C30016820460C300F521C480C30016820460E306F
:401E80000E5419480C30016820460F300E543846704300F0ADF814490C310968002808510CD00024009011E00F480C30016801980818009900F017F9002802D0012005B0C2
:401EC000F0BD0098C019641CE4B20090B442EBD30298054905600C310879401C08710020EDE70000FCFF00004C020020F8B50D4600216A468C461180002839DB23490978D0
:401F0000884235DA214B04010C3319680A59002A2ED020460C300B5A801C0E5C184670438018954224D3854222D2002006E007465F43BF18AF4206D0401CC0B2B042F6D3B1
:401F40006046002814D0114E271DC8190C366A46294600F0F2F800280AD168460088012808D030682946C01900F0BDF8002803D00120F8BD0020F8BDFEF780FD30680F343E
:401F8000015D491C0155FEF775FDF3E74C02002003460020002B06D0034A5168906852884018511A198070474C02002070B5002400F0DCF80D4E002132460C3271600EE098
:401FC000200113680546195013680C355953AD1C13680F3059551368641C1954E4B230788442EDD31171002070BD00004C020020014610B5002000290CD0C91C064B8A0896
:40200000596892005C888A18A24202D898685A60401810BD002010BD4C020020F8B5002827DB19490978884223DA174C05010C342168485900281CD028460C30085A0090CB
:4020400028460E300E5C401C0E5420682F1DC01900F064F800280CD12068002445590EE0094829460C300068C01900F03CF8002801D00120F8BD00982D18641CE4B2B4423D
:40208000EED30020F8BD00004C02002030B50D4604000BD0A800FFF7ABFF6060002805D000202570C0436080002030BD012030BD70B50D46040005D0002D03D00220205E5C
:4020C000002801DA012070BDFEF7D8FC0221615E60688900405828606088401E6080FEF7C9FC002070BD70B50D46040007D0002D05D002212078615E401E814201DB012059
:4021000070BDFEF7BBFC6088401C00B26080616880000D50FEF7AEFC002070BD10B5040009D0227800216068FEF7EEFD0020C0436080002010BD012010BDF0B500231D4650
:40214000002802D00224045F0AE00120F0BD46689F00F6598E4201D1012503E05B1CDBB29C42F4DA15700020F0BD0000054B11221A70054A1180064A04491160054908602A
:40218000704700004C0200204E0200201412002058020020540200200148007870470000600200207CB505460024FEF7B9FDA8796946087000A8062229460130FEF79BFDCA
:4021C0000021684604F092FB0C2804D0072804D01F2804D004E0022402E0042400E0272420467CBD10B502280BD0032802D0042809D102E000F0D4F805E000F0A3F9FF2888
:4022000001D100F0B3F9FFF74DFBFFF759FB10BD10B500F0DBF9FFF745FBFFF751FB10BD10B503240CF0A6F8002810D10CF04AF800280CD105F0AEF8002808D100F098FB1C
:40224000002804D104F0ACFD002800D10024024900200870204610BD6002002070B50025044600280ED0A07901280BD8FEF758FDA0790028204602D002F0C8FF03E002F0FF
:402280007DFF00E00125284670BD10B5FFF70AFB012801D1FFF70CFB10BD38B504460120002C20D0617801291DD800290BD0FF25E535FEF735FD2846FFF7BEF9C0B220708A
:4022C000072803D00EE0FF25CD35F2E70020694608706846FFF708FB69460878012801D108202070002038BD70B504460120002C1FD06178012902D92278092A19D800299A
:4023000006D0FF25E53520780726092803D003E0FF25CD35F7E72670FEF702FD2078082808D00020FFF712FB21782846FFF78AF9002070BD0120FFF709FB2670F4E7000033
:4023400070B50D46040001D0002000E00548002802D0012102F004F92946204602F066FC70BD00009813002038B5054600200446009022466946284600F092FF009800289F
:4023800001D00BF0D9FFA878214602F00EFAA878214602F0FDF9641CE4B2052CE9D338BDF8B5624CFFF77EFA012846D160480078002842D002F0BEFB0028FAD003F0A0FFFF
:4023C0000028F6D05B4E7078C00703D000F03DFC0128EED0B07E0028E7D170780025002878D0000707D5AC20FFF726F9070B00F057F9384321D14F484178684603F05EFE59
:402400004D4F06462079B9784018C1B2B14271D802F090FB002810D0464C203402F0B7F96846008802F0E3F902F08CFA43490988884203D10120FFF773FA74E0404901201D
:4024400008703C48807B00282BD04034608A002827D0E07E002824D1A1200001FFF7ECF8208A4000B04218D97878002815D1A12424012046FFF7E0F802218843014620462A
:40248000FFF7E0F8FF24F1342046FFF7D5F80321090201432046FFF7D5F83878002800D03D7002F0E7F90120FFF734FA244C08E0FEF7A0FAFFF7F6F906282CD0207800281F
:4024C00029D0FFF7EFF9062825D020780128EFD021E0FFE702F02EFB002824D0142002F086F9174C0120207002F0C4F90020FFF711FA09E015E0FEF77DFAFFF7D3F9062881
:4025000009D02078002806D0FFF7CCF9062802D020780128EFD0207801288BD1FFF78EF925700020F8BDFF20F8BD0000641300200C02002078130020660200207802002087
:402540006102002010B50848FF244078002809D102F0F0FA012805D1FFF790F80720FFF7DFF90024204610BD7813002038B5FFF799F9012801D0002038BD02F0DBFA002823
:402580000AD0114C6078C00703D000F05EFB012802D0A07E002801D0FF2038BD617800290FD0684603F08AFD022806D96846008802F01DF9012002F063F90320FFF7B0F982
:4025C000D9E70020F7E700007813002038B5FFF769F9224C2178012911D0062813D0032836D007280AD100206946087002460120FFF756F8FFF756F90128FBD138BD207814
:402600000128FCD038BD02F059F9FFF74BF90128FBD120780128FCD0A12424012046FFF70BF801210E4A83079B0F1170022BE9D15288002AE6D001432046FFF703F8204696
:40264000FEF7FAFF410849002046FEF7FBFF38BD02F038F90120FFF763F938BD0D02002066020020F8B50646002402F0E1FE0546304602F0F5FE00210346012632468A40E7
:40268000174610462F401840002F03D0002801D1224394B2491CC9B20529EFD32046F8BD70B500252C460A4E03E0002C01D0002000E030460079002803D02046FFF7D2FF03
:4026C0000543641C2406240EEFD0284670BD0000981300201CB50020694648706846FFF7DCFD01AA69460A20FEF7DAFF6946042008561CBD10B50C4601F076F9002809D0E8
:402700000179002906D0C1788078224602F03CFB002010BD022010BD0148007870470000641300204030C07E002800D00120704700B500F001F800BD8821484306494018BF
:402740006030417F491CC9B24177052901D300214177C8B2704700007813002013B501F043F904000BD001F0CEFC002807D0214601AA0A310620FEF793FF00201CBD022017
:402780001CBD000010B50C4601F02EF900280AD001F0B9FC002806D0224604490A20FEF77FFF002010BD022010BD00004D130020F3B581B0074601460026029802F030FE70
:4027C0000446002F01D0002500E0154D002D21D0284601F03FF9032C04D13946029802F049FE06463846029901F0D2FF032C06D0002C10D00121384601F04CFA03E03146B4
:40280000384602F0EBFF284601F090FE0221284601F0A6FEFEBD3846029901F0B9FFFEBD9813002070B50446002503F0DDFB002801D00C2070BD2078611C02F09FFBFF28AF
:4028400002D01F25284670BD02F0ECFBFF2804D02178621C01F00EFFF4E70725F2E710B503F0C2FB002801D00C2010BD02F05EFB002010BD70B50D46044610210BF09CFCB9
:402880001021601806460BF097FC334610221946204603F0D5FB102130460BF08DFC02202870204604F0D4F970BD70B504464078217802028006850FE0781143A678090573
:4028C0000002090D0643084601F08EF8002812D0022D10D0032D0ED0002E08D00179092909D0002907D0214600F0A1F870BD0089002104F0E2F820460BF01EFD70BD0020A2
:40290000704770B50446002503F06EFB002801D00C2070BD2078611C02F030FBFF2802D002F072FA00E01F25284670BD10B504F037FA00F0F6F8002010BD10B5044600781A
:402940006178E2780843A17811430843217908436179084305D003F039FB002803D00C2010BD122010BD204602F050FC002010BD10B5044803F054FC02F050FA00F004F81B
:40298000002010BD34130020F8B5114D00266E706E736E716E76AE76EE766E75AE70EE70AE712F46EE730120B03778723F2078719B20B87100F00AFA0024204601F06AFB42
:4029C000641C2406240EF8D03E72FE71AE73F8BD7813002070B505460E46084602F028FD0446304602F03CFD0121A9400A46224001400A4301D0012070BD002070BD10B503
:402A00000446084602F02CFD0121A140014201D0012010BD002010BD10B5FEF743FF032804D101F04FFF0120FEF77AFF10BD70B5044600790D4609281CD000281AD020468A
:402A40004030817E491C8176204601F06FFDA078FFF76EFE064602462946204600F00CF8002806D1A0783146FFF76AFC28460BF063FC70BD0846FAE7F7B5054648780C46DA
:402A80008006870FC8788978000282B0014368468180284601F042FB060007D021462846049A00F091FB304605B0F0BD384600F039FC0746034601AA2946204600F0CAFAE5
:402AC00068468088231DC0B20090A878FF22049902F066F8684680883B46C2B2A878049902F010FCDFE770B5002500242846FFF7B9FD060010D03046E040C007C00F07D013
:402B00002146284601F037FE21462846FFF750FE641CE4B2052CEED36D1C2D062D0EE4D070BD10B502F07AF9FFF72EFF0BF06CFC002010BDF8B5002400F081F8012301287D
:402B400000D10124104F00203E4620360425082203E0002801D0002100E031460979002907D001290BD002290BD0114681402143CCB2401C0006000EEBD07C70F8BD1C43AD
:402B8000F7E72C43F5E700007813002010B5FFF7D1FF10BD10B50B4681791943817103D08078114602F072FB10BD10B582798A43827102D1807802F081FB10BD70B5FF256E
:402BC000D53502242846FEF737FD0C4A9178002901D0022906D1137852789A18282A01D9032402E0032900D101244105490DE00201432846FEF726FD70BD0000620200205C
:402C000010B500F022F8002807D0012805D0032801D0042801D0002010BD012010BD014610B50020C90701D000F009F810BD014610B50020C90701D000F001F810BD10B521
:402C40002020FEF7F9FC000A10BD10B51820FEF7F3FC410501D5042010BD4007800F10BD38B5044640060CD5684601F03BFE0220FFF78CFF072002F0EDF96846007801F0D3
:402C800071F9200613D5FFF7E0FF01280FD1684601F028FE6846007800F09AFA072002F0D9F9012001F0AAFC0220FFF76FFF38BD10B5034A0178117002F0DBF9002010BD72
:402CC0006202002010B50446FFF7B9FF002801D00C2010BDA27B01211848002A827801D00A4301E05208520082706279012A0FD0C17849084900C170207901280CD06188D1
:402D0000208802F0D9FF2080207904280BD00DE0C2780A43C270EFE7E01D02F05FFA0848808C208002E0E01D02F058FA054920798870204602F0ACF9002010BD781300208A
:402D4000241300206202002038B50478FFF777FF844201D10C2038BD002C18D0072069460870FFF74DFF012807D10121684600F08DF8012801D0092038BD6846007802F0D0
:402D800069F9FFF71BFF02F0B3F9012010E0FFF737FF012806D1684601F0A4FD6846007800F04AFA072002F055F902F095F90220FFF7ECFE002038BD10B5034A01785170E2
:402DC00002F03CFA002010BD6202002038B568460BF048FA002801D01F2038BD01210098C90201804180002505714571857107214173857302F04CF9009C202200212046B7
:402E0000FDF782FF25702A460021601CFDF77CFF204602F02EF9204602F010FA00980BF08BFA042200210248FDF76EFF002038BD620200200346084800B5834209D8184636
:402E400000F0D2FD002804D00089984201D1012000BD002000BD0000FF0E0000074A9179491C8906890E917138220A4092014907090E114308430249084070477813002080
:402E8000FF0E0000C006C00E70470000F8B507460E4600240D4803E0002C01D0002500E005462979002905D0641C2406240EF3D00020F8BD204601F0EDF82E712046FFF778
:402EC000CDFF28813C700120F8BD00009813002010B503F0E9F80222002100F003F801F045FF10BD10B5094B40074907000F090F185A595A40185043C0086421FDF75AFEC5
:402F0000002800D1012080B210BD0000EA050100F7B53D20405C88B016460C46002829D030786946087200252046FFF7FBFB012800D00125204603A9383001910090234670
:402F40000327A17E34332A46206A03F083F902A8089900900B46019120463A4603A9243003F050F802466846007A3070204601F07DF810460BB0F0BDFFB587B00C46054637
:402F80001078694608723D20005D1746002826D000262046FFF7C6FB012800D00126204603A93830019100902346A17E34333246206A03F04FF902A80090291D0191204688
:402FC0002B1D03A924300A9A03F01CF802006846007A388002D1204601F048F810460BB0F0BDF7B53C20405C88B015460C4600280CD0287869460872002806D000262046F4
:40300000FFF790FB012803D003E01F200BB0F0BD0126204603A938300191009023460327E17E34333246E06903F014F902A8089900900B46019120463A4603A9243003F015
:4030400013F802466846007A2870204601F018F81046DBE7FFB505463C20405C87B016460C46002810D0084601F058F801280BD0308869460883002809D000272046FFF7D1
:4030800051FB012805D005E000200BB0F0BD0220FBE70127204602A93830019100902346E17E34333A46E06903F0D4F806A80090291D019120462B1D02A924300A9A02F082
:4030C000D3FF02466846008B30806846008BA870000AE870204600F0D3FF1046D5E770B50D460446FFF71EFB01280AD0E87AA97A00020143A07801F0F7FC012808D0002024
:4031000070BD00222421204602F020FD242070BD28214C200155204600F09AFB282070BD002801D0002000E003484030C07F012800D00020704700009813002001460020B5
:4031400049070ED50021084B03E0002901D0002200E01A461279022A04D0491C0906090EF3D0704701207047981300200146002049070ED50021084B03E0002901D0002229
:4031800000E01A461279022A04D0491C0906090EF3D07047012070479813002010B5044680346068002803D00BF0DAF80020606010BD40304170704740308170704740303C
:4031C000017070470171704792001018C166704770B53C2501F02CF9040004D020460021433001F021FC2946204600F0C0FB002C02D0A07801F0AEF870BD000010B5002823
:4032000001D0002000E00348002802D0008903F09AFC10BD9813002010B5002801D0002000E00448002804D00179072901D100F041F810BD9813002010B501F0F9F80028BC
:4032400002D0807801F086F810BD00207047000070B50546008A00281ED010491122897A1140C90618D5294640314A8A098A521C4A4392B2D10800D10121540801E0621ABA
:4032800094B2A042FBD9FEF787FF012804D1298AA878224601F018FD70BD00002413002000230B60052A04D292001018C26E0A60C366704738B5044600200090A0790028E5
:4032C00014D14020015D052901D00E290ED168460AF0D8FF002809D12046009902F01EFC03481021C28A2046FFF754FC38BD00002413002010B50B4604460146184602F0D3
:40330000EDF8002802D020460BF020F810BD13B5044601AA11460620FEF7C2F96846818861811CBD002800D10220704770470000F8B504462346401D543300909A1EA078DF
:40334000911E01F0DEFA25464035A88A298A8000FDF730FC401E81B2688A884203D96982A07802F01EF820460021433001F05CFB8020FEF761F9E88102F096FEE989891C05
:403380008AB26179FFF7AEFD01F0F0FC02F08CFE2A8A6179FFF7A6FD074601F0D9FC688A00280BD0FF26F1363046FEF745F90321090201433046FEF745F902E0002001F0CA
:4033C000DEFFFF206130FEF737F96E8A002E0BD070431049FDF74EFC0004000C01D0401C80B20D49488002E00B4800214180288A704381B2A07801F02FFF2837B9B220462D
:4034000002F05EFCE98AA07801F07EFEA07801F0E2F9F8BD71020000660200207FB504468034616805460E46183108226846FDF762FC31462031082202A8FDF75CFC10218E
:4034400068460AF0B9FE6068102108300AF0B4FE60682B46083024331022694602F0F0FD7FBD10B504460821FFF79FFB10212046FFF79BFB207905281FD006281DD0082861
:403480001AD12189002003F0D7FA072020712046FFF748F9014620464030012913D00E21017000210176204600F060FF2046FFF775FE2046FFF7CCFE10BD20890122002178
:4034C00003F09EFAE1E70521EAE70000FFB581B01F4604460821FFF768FB10212046FFF764FB2079082803D0092804D0042203E00422012501E009220025204600F0FAFD0C
:40350000264600204036307022712046FFF746FE0398002D02D0012808D00BE001280AD120890022029903F06BFA04E02189029803F082FA012700203076012F04D020467F
:4035400000F014FF05B0F0BD02983073204602F029FB054605480121C28A2046FFF71AFB002DEFD109202071ECE700002413002070B50C460546FFF7D5F8012809D1082134
:403580002846FFF712FB0023012221462846FFF79DFF70BD10B5044600F0ACFD2046FFF7FDFD00214034217010BD70B505461A24FFF7B8F8012809D108212846FFF7F5FAFC
:4035C0000023012221462846FFF780FF70BD0000F8B50446002000900E4668460AF052FE002801D00D20F8BD8420005908212030009D00F0F4F920460421383000F0EFF985
:40360000002E02D1204600F0B3FD2946204602F015FA0E480821C28A2046FFF7BBFA204600F00BFF25464035002808D0204600F023F8002801D0092028700020F8BD082069
:403640002870204600F072FFF7E7000024130020014610B540310A460978082906D0092907D00A2901D100F091F810BD0B20107010BD00F001F810BD70B50446007925468C
:403680004035052805D0062803D008280FD00C2070BD03220621204602F058FA0D480821C28A2046FFF776FA1120287010E006202873204602F076FA0646AA8A0A2042432D
:4036C00001212046FFF766FA002E01D109202071002070BD2413002038B504460020009068460AF0CFFD002801D00D2038BD2046009D00F08BF908202071204600F038FD5D
:403700002946204602F0CCF900213D2001550F2040210855204600F009FF002038BD00B5024600F0E7FC10214032117000BD10B50446FEF7F7FF012809D04020005D112826
:4037400005D100231A4606212046FFF7BFFE10BD10B5FFF786FE10BD38B504460021684600910AF08FFD00280CD12046009902F00EFA05480821C28A2046FFF70BFA0D206C
:403780004034207038BD00002413002038B504460021684600910AF075FD002801D00D2038BD2046009902F0E7F905480821C28A2046FFF7EFF90C2040342070002038BD7F
:4037C0002413002000787047F8B50025002801D0002400E01A4C002C28D0204600F093FC002823D0207903281CD005281CD026464036B18AA07801F03DFDB078012815D18A
:403800000021204601F087FE274680373868002802D00AF0A5FD3D600020B0702079072805D007E0042000E006202071F8BD2046FFF70EFD0221204600F092FEF8BD00003B
:403840009813002010B54C22115400F046F810BD10B50446FF21FFF7A8F909202071A07801F038FD10BD000038B5FF216A461180002801D0002400E0064C002C08D0114667
:403880000620FDF70DFF684601882046FFF73FFD38BD00009813002010B504468079002809D022214C200155FF212046FFF77DF9204600F012F810BD10B50379024640322B
:4038C000002B03D01173092B02D003E0002100E02221117300F001F810BDFEB504460089002701902781207926464036002817D0012815D002280AD112E002AA69462046A9
:4039000001F0DAFD002807D100980AF01FFD204601F0FAFD0028F0D02046FEF725FDB776254680352868002802D00AF019FD2F606868002802D00AF013FD6F60317B002970
:4039400002D0019800F044F8A078002100F05CFF2046FFF7BDFAA07801F0B0F8A07800F0F9FC0B20FFF712F900F038FCFEBD70B50E46054602F094FB044606702846FEF7F8
:40398000D1FE014601204140204661700C3001F034F8002D10D02889608028464030C1782171002E10D169796171018AE180418A2181808A608107E01820FDF73DFEC0055E
:4039C000C00F207100206080204602F0DEFF70BD0A4610B50146002003F0CDF810BD10B50AF0C6F910BD000000B50146FFF74AFA002801D0002000E00348002802D00289BA
:403A00008A4200D0002000BD9813002038B5044680346068002806D168460AF043FC002801D100986060606838BD000010B5014600F074FB0128887802D0FEF77DFE10BDF7
:403A400088214843024940186030007F10BD00007813002070B5054604464035A87F012811D1A1788820084A484380186030067F3046FEF7AFFF002805D10220A877A078CC
:403A8000314601F0E1F870BD781300200EB500220A216B460292198100905A811046029B00990AF0CFFC0EBD10B50E4CE079002816D0FFF718F80C48827FC17F808B00F05B
:403AC00095FB01280CD10020E07100F014FF0446AC20FDF7B1FD010B02D0204600F032FA10BD0000281400207813002070477047490510B5490F0B00FDF7D0FA0607040815
:403B00000C0C0F073E21FFF79DFE10BD0821FFF7D3FE10BDFFF7E1FE10BDFFF7BDFE10BDF8B507460025002D01D0002600E0204E00F096FE3046403044890021418100F022
:403B4000B5FE304600F0DFFA01282CD1A00702D52846FFF739FEE00602D52846FFF784FEA00602D52846FFF791FF600601D500F0F1FA200602D5284600F01CF8600702D53C
:403B8000284600F023FA380402D52846FFF744FB780402D52846FFF731FBE00703D021463046FFF7A5FF6D1C2D062D0EBBD0F8BD98130020F8B5002801D0002400E0204CA8
:403BC000002C39D025464035A878012834D1E98AA07801F099FA2046FEF7A4FD01282BD002F062FA2A8A6179FFF77CF9064601F0AFF82836B1B2204602F062F8E98AA0780A
:403C000001F082FAFF206130FDF716FD6E8A0D4F0146002E11D0304648430B49FDF72AF80004000C01D0401C80B27880288A704381B2A07801F010FBF8BD0020F5E7000087
:403C400098130020660200207102000038B5002801D0002400E00D4C0020009068460AF011FB002811D12046009901F0C5FF607E02210843607606480421C28A2046FEF7DD
:403C800089FF0221204600F06BFC38BD981300202413002070B50D46124A010001D0002401E014462034002C1BD0204600F036FA01280AD18820484380186030007FFEF7BC
:403CC00089FE002801D101F0F7FE20464030817E491B8176204600F029FC2089294602F0ECFE70BD7813002070B503460088FFF77BFE040013D000F006FA00280FD020790A
:403D0000092819D02546997840352973204601F049FF0646A878012803D0AA8A02E0022070BDEA880A20424301212046FEF732FF002E01D109202071002070BD0EB50022B5
:403D400017216B460292198100905A810120029B00990AF077FB0EBDF8B5184E0024F079002820D10025AC20FDF766FC000B21E0204600F075FEFDF75FFC07462A462146EB
:403D800000F034FA01280FD00D48012187838577C477F171002D01D0002000E02030002801D000F0C3FBF8BDAC20FDF745FC000B641CE4B20028DBD1F8BD00002814002012
:403DC0007813002010B50088FFF70EFE002809D0014640310C460978082905D00B2903D00C2010BD022010BDFFF746FC002801D009202070002010BD70B503460088FFF785
:403E0000F3FD040008D0254640352878082805D00B2803D00C2070BD022070BD8420005910220830991CFCF766FF2046FFF7F6FA2878082804D02046FFF7A8FC002801D026
:403E40000A202870204600F071FB002070BD000010B50C46002121700088FFF7C5FD03000BD000F050F9002807D009481121807A0840C00603D4112010BD022010BD0220E1
:403E800020701A8A1889002102F092FE002010BD24130020F8B50F46002100910088FFF7A3FD040012D000F02EF900280ED0E079410641D4617E02264A07002A08DB8907C7
:403EC000402500291ADA2843E07135E00220F8BD02F0E6F80021017021894180A1898180217E4170E189C1803E7005460178134802F0C4FB284602F0FEFD1DE0204600F079
:403F000013F9012806D068460AF0BCF9002803D00720F8BD2A20F8BDE07900992843E071204601F069FE607E0421304360760448C28A2046FEF72EFE0020F8BD1D04000076
:403F4000241300203EB500220F236C460292238100910190628169460EC900200AF072FA3EBD000070B5054600F062FA040027D003202071254600264035EE76E67020461C
:403F8000FFF7D6F901F0A8F80920FEF7FFFDA07800F082FD0121204600F0E2FA2E706E70AE7000212046FFF7E2FC0749887B401C8873A078FFF74AFE012001F0BFF970BDCA
:403FC000284601F087F970BD7813002010B5002801D0002400E00A4C002C0FD020464030417802290AD1002141702046FEF79AFB002803D10221204600F0B2FA10BD0000A2
:404000009813002070B503460D460088FFF7ECFC04000BD000F077F8002807D012481121807A0840C00603D4112070BD022070BD20464030418A008A491C41430804C10C4C
:404040005888884201D2122070BD20822079072802D12046FFF7FCF8022028702089002102F0CEFD002070BD24130020016A491C016204D1817E491C4906490E8176704732
:40408000C169491CC16104D1C17E491C4906490EC176704770B500250646002801D0002400E0114C002C1CD0882200212046FCF72BFEA6700020264620714036307020463E
:4040C00000F018F8204601F01BFA084820820848B577807A1121084000D001202075012070BD002070BD000098130020B80B000024130020002101628176C161C176203048
:404100000177417770470079002805D0012803D0022801D001207047002070474030807F002800D00120704740300078002807D0012805D0052803D00E2801D00120704779
:404140000020704710B5807801F08AF9002800D0012010BD10B500F0CEFB0446AC20FDF76BFA010B02D02046FFF7ECFE10BD000070B5054604464035A87F002823D1FF20E2
:404180006075A0788821144A484380186030417F8823491CC9B24177A078584380186030052901D300214177A0788821484380186030467F0677A1783046FEF70BFC002836
:4041C00002D00120A87770BD0220A877A078314600F03AFD70BD0000781300200020401C0006000EFBD0002070470000F0B515468207920F85B0C004C00E02926A4690803A
:40420000002D01D0002400E0514C002C29D0084600F026FC03906846808800280BD00298012845D0022843D003280CD03D20005D012872D086E00398FDF7FEF90146204634
:40424000FFF765F87EE00020029002A809F0FAFF002807D03D20005D012876D12046FFF705FF72E06846029E8388324600210398FDF758F90398FDF7DFF901462046FFF788
:4042800046F8284600F0B9FA01AA21463046FEF73FFE002806D030460AF044F83D204C21085528E0F5773146204601F077FA4CE0002000902789684609F0B4FF002802D091
:4042C000002005B0F0BD6846009E8388321D00210398FDF727F90398FDF7AEF901462046FFF715F8284600F088FA25464035287E00280CD103E02046FFF7AAFA25E001AAE2
:4043000021463046029BFEF737FE002806D0304609F0FEFF3D202873EDE710E00298FFF705F8390A000101433770717068468088B070000AF0703046FFF700FD05E0204622
:40434000FFF794FE284600F058FA0120B9E700009813002010B5044A917B002901D0491E9173FFF797FE10BD78130020F8B5074606464037B87F00283DD0B0788821009068
:4043800048431F4945186035287F0099FEF737FB012831D0287F401CC4B2052C00D300240020B877FF276F772F77A87702460146009800F0C9FD717DFF2903D0304601F099
:4043C00060F8777501F078FB00252F462246694630460097FEF764FF0099002902D03046FEF725FB641CE4B2052C00D300246D1CEDB2052DEAD3F8BD0320B877F8BD0000CF
:404400007813002010B502460021084B03E0002901D0002000E018460479944204D0491C0906090EF3D0002010BD00009813002000B50120FFF7E6FF00BD10B5044601F07A
:404440002FFE2189018080346168416061682831816002F00BFB10BDF7B50646087982B00C46092807D0A078F0770846FFF756FE012806D010E0304609F068FF022005B046
:40448000F0BDA1788820284A484380186030007FFEF7A0FA012810D0A078FEF741FE01280BD037780121304601F0B3FA25462035062F36D00B2F0FD107E06846027C21468E
:4044C0003046FEF717FF0D20D9E72046FEF72AF9012801D1002028772046FFF7A7FA054604AA21463046FEF77CFD01205F2108556946087C0090A07833463A46294600F0A4
:404500004FFB69460A7CA0780323294600F0FAFEA0782946FDF714FF304609F017FF0020ADE70120D7E700007813002010B502464032937F0021002B03D1927E002A00D05B
:404540000121064AD279002A00D000210279092A00D10121807800F0FFFE10BD2814002070B50C460646FEF7DDF8002814D1012C0ED935464035A87800280DD168780228E6
:404580000AD03079092807D03046FFF7DBFD0446204600F00EFE70BD0124F9E770B50D4601280BD0082808D1A8241146B020FDF749F829462046FDF745F870BD2020FAE74D
:4045C00010B501460820FDF73DF810BD10B50446FF20F130012C01D1FF20D530002200F006FF1020FDF728F80349A043088001461020FDF727F810BD6A02002010B504461B
:404600001020FDF719F80449A043088001461020FDF718F810BD00006A02002010B50446012802D0082C07D102E0FF20D53001E0FF20F13000F0D0FE1020FCF7FDFF044952
:404640002043088001461020FCF7FCFF10BD00006A02002010B504461020FCF7EDFF04492043088001461020FCF7ECFF10BD00006A020020F8B507460120B84085B21446E9
:404680000E46012229467C2000F0B1FE32462946782000F0ACFE6078217800020143E078A5780002054360792679000206430C2047430D2080013C182046FCF7C3FF241D73
:4046C00029462046FCF7BEFF201D3146FCF7BAFFF8BD401880B270478B00034310B5D10191201943C000FCF7ADFF10BD70B505460C46407829780002014341200001FCF788
:40470000A1FFE878A978000201430A48FCF79AFF60782178000201438320C000FCF792FFE078A1780002014302480830FCF78AFF70BD00001404000070B50D46044681B2A7
:4047400001208002FCF77EFF210C0448FCF77AFF81202946C000FCF775FF70BD0404000070B5054600242846FCF766FF641CA4B2102CF8D370BD10B50C460146B020FCF750
:4047800061FFFF2021462D30FCF75CFF10BD704710B50C460146B020FCF754FF204600F051FE0021FCF74EFF10BD70B50C46054600F005F821462846FFF7DDFF70BD10B555
:4047C0000C460146B020FCF73DFFFF2021462930FCF738FF10BD10B50146B020FCF732FFFF20002220211D3000F001FE10BD10B50146C020FCF726FF10BD010210B54D31A9
:404800000020FCF71FFF10BD10B504020029014608D0B020FCF716FF214675310020FCF711FF10BDB020FCF70DFF512000214001FCF708FF00210348FCF704FF2146763186
:40484000ECE70000240A000010B554210020FCF7F9FE10BD10B553210020FCF7F3FE10BD10B5034908884880FFF7C8FE10BD00006A02002010B550210020FCF7E3FE10BDA7
:4048800010B50E2400280CD0C420FCF7D5FE20430146C420FCF7D6FE51210020FCF7D2FE10BDC420FCF7C8FEA043F1E710B502484088FFF7CFFE10BD6A02002010B5FCF7D9
:4048C000DBFF10BD10B552210020FCF7BBFE10BD884201D8081A03E00022D243101A401880B2704710B504461820FCF7A5FE8004400F207010BD10B5B020FCF79DFEC0B254
:4049000010BDF8B50E4601461C461546B020FCF799FEFF20E930FCF78FFE0746FF200130FCF78AFE3080FF200930FCF785FE2880FF200530FCF780FE208079070698490F7A
:404940000170F8BD10B5C820FCF776FE10BD10B50C46002812D05820FCF76EFE2070000A60705C20FCF768FEA070000AE0706020FCF762FE2071000A607110BDFF20C13073
:40498000FCF75AFE2070000A6070FF20C530FCF753FEA070000AE070FF20C930E8E7000000B5024A00F004F800BD0000FF7F000000B51346FFF78CFF984201D8022800D233
:4049C000002000BD10B50146B020FCF73BFE0248FCF732FE10BD0000080A000010B52420FCF72AFE10BD10B50146B020FCF72AFEFF202130FCF720FE10BD70B50446682059
:404A0000FCF71AFE06466C20FCF716FE05467020FCF712FE2670310A6170A570290AE1702071000A607170BD10B50446012905D01820FCF701FEC00B207010BD4820FCF71F
:404A4000FBFD8007C00FF7E710B50146B020FCF7F9FD0248FCF7F0FD10BD0000280A00000120C0027047000010B50146B020FCF7E9FD0248FCF7E0FD10BD00000C0A0000D0
:404A800010B50C460146B020FCF7DCFD0321A0014902401810BD00008821074B414310B5C918FF2260314A770A7700228A77114600F04AFA10BD000078130020882250434B
:404AC000074A10B58018FF21603041770177002181770448418EFF201D3000F07DFC10BD781300202413002010B50C460146B020FCF7A8FDFF202530FCF79EFD02222146FD
:404B000000F002F810BD000010B50023884201D8081A03E00024E443201A4018044980B2884201D8824200D90123184610BD0000FF7F000010B5C420FCF77EFD0006C00FD9
:404B400010BD000010B50348FCF776FDC007C00F10BD00002C0A0000F8B503465078167800020643D07895780002054350791779000288240743002900D098241946B020EE
:404B8000FCF760FD31462046FCF75CFD201D2946FCF758FD204608303946FCF753FDF8BDFFB581B014460D4606460A9FFFF768FF3B460021049AFCF725FD024840198455BE
:404BC00005B0F0BD6E02002070B506460D4611242520A40108214001FCF734FD2B46324600212046FCF70EFD70BD70B5212405466401FFF72FFE10232A4600212046FCF75D
:404C000001FD70BD10B5044640782178000201438F20C000FCF716FDE078A178000201430148FCF70FFD10BD7C04000010B50C460146B020FCF706FD802021460143FF2054
:404C40002930FCF7FFFC10BD70B50D460146B020FCF7F8FCFF241D342046FCF7EDFC01090901FF202943013001432046FCF7EAFC70BDF8B500242646012807D0032802D03A
:404C8000052808D105E002240A2604E004240C2601E004240D26492701463F013846FCF7D1FC25204001FCF7C7FCC5B228462042F7D0252031464001FCF7C4FC002138466B
:404CC000FCF7C0FC2846F8BD70B50D46044601461646B020FCF7B6FC512029464001FCF7B1FC31460648FCF7ADFC032189030820FFF794FC210275310020FCF7A3FC70BDE0
:404D0000240A000070B50D4604460146B020FCF799FCFF2029461930FCF794FC21024B310020FCF78FFC70BD70B5491E8CB205460146B020FCF786FCFF2021461930FCF7BD
:404D400081FC29024C310020FCF77CFC70BD0000054910B5884200D908460146FF206130FCF770FC10BD0000FF0F0000054910B5884200D908460146FF206530FCF762FCD1
:404D800010BD0000FF0F000070B588251446002900D098250146B020FCF754FC2846FCF74BFC2070000A6070281DFCF745FCA070000AE07028460830FCF73EFC2071000A79
:404DC000607170BD10B51446024611200B4680010021FCF703FC012C01D1FFF735FD10BD10B504460920C001FCF726FC2070000A60700448FCF720FCA070000AE070FFF711
:404E000023FD10BD840400000121814010B589B200227C2000F0EBFA10BD000070B5FF210120FFF7D3FBFF210820FFF7CFFB3020FFF7E4FB80210020FCF704FC0022114636
:404E40000320FCF72DFC374DFF20A98DD530FCF7F9FB0024FF26F1362146B020FCF7F2FB298F3046FCF7EEFB2046FFF727FE641C2406240EF0D0FF20A98FF930FCF7E2FB30
:404E800028481030044600F079F9204600F0BEF900F04CF8234CB82040346188FCF7D2FBA188BC20FCF7CEFBE188C420FCF7CAFBFF20698EE130FCF7C5FBA120002100016E
:404EC000FCF7C0FB3920FFF7C5FBFFF7C3FC93200721C000FCF7B6FBFFF7B6FCE020FFF73FFCE820FFF73CFCF020FFF739FC0020FDF7EEFF618A0C48FCF7A4FB0A4828214A
:404F0000001DFCF79FFBFF210131AC20FCF79AFB832000218000FCF795FB5B210020FCF791FB70BD24130020140A000010B500217C20FCF787FB00217820FCF783FB7421E7
:404F40000020FCF77FFB10BD70B50D4601461446B020FCF777FBFF261D363046FCF76CFB01090901FF20294301308143002C01D1102041403046FCF765FB70BDF3B589B027
:404F8000FF2001900D208001009048780D7800020543C8788E780002064348790979000201437C200791FCF747FB06907820FCF743FB059074210020FCF744FB1848002492
:404FC000049026E00120A04087B20098FCF734FB03900098FCF730FB02900098FCF72CFB039A29465140029A72401143079A424011430BD10698074208D00598E040C107C0
:405000000998C90F814201D1019405E0641C0498E4B20078A042D5D801980BB0F0BD00006413002070B5FF257C20FCF705FB0849002401230A7805E01946A140014205D067
:40504000641CE4B2A242F7D8284670BD2546FBE76413002010B504461820FCF7EDFA0721C90288436107890C01431820FCF7EAFA10BD10B50446E020FFF772FB207822467A
:40508000401CC3B20021E020FCF768FA10BD000010B5044641790079042817D040000843A17B032901D8C9000843617B4A010243A079010207201143C00201431820FCF793
:4050C000C1FA21881C20FCF7BDFA10BD08460149E5E700000204000010B5012000F02EF90120FFF78BFA41210020FCF7ABFA10BD10B5002000F022F90120FFF7ABFA4021A2
:405100000020FCF79FFA10BD10B50C460146B020FCF798FAFF2021460D30FCF793FA10BD70B50C4601461E461546B020FCF78AFAE92021468000FCF785FA75202946C00049
:40514000FCF780FAEB2031468000FCF77BFA6C433B20A1B20001FCF775FA70BD70B50C4601461546B020FCF76DFA21468420FCF769FA29468020FCF765FA70BD10B504462A
:405180004078217800020143FF20C130FCF75AFAE078A17800020143FF20C530FCF752FA6079217900020143FF20C930FCF74AFA10BD70B5A124054624012046FCF73CFA39
:4051C000012D07D041084900814202D02046FCF739FA70BD014601221143F5E710B5044640782178000201436820FCF72BFAE078A178000201436C20FCF724FA6079217923
:40520000000201437020FCF71DFA10BD10B5044640782178000201435820FCF713FAE078A178000201435C20FCF70CFA60792179000201436020FCF705FA10BD10B5044670
:40524000E820FFF78DFA20782246401CC3B20021E820FCF783F910BD10B50C460146B020FCF7F0F921460248FCF7ECF910BD00001C0A000010B50C460146B020FCF7E2F9F1
:40528000FF2021460530FCF7DDF910BD70B5054688000521FBF78EFC84B22946B020FCF7D1F921460448FCF7CDF9290272310020FCF7C8F970BD0000040A000010B5044679
:4052C0000146B020FCF7BEF9210273310020FCF7B9F910BD10B504460146B020FCF7B2F9210270310020FCF7ADF910BD10B504460146B020FCF7A6F9210271310020FCF7F6
:40530000A1F910BDF8B505461E4614460F46084600F098F800902802A1000843304304462946B020FCF78EF921460098FCF78AF90148C0194655F8BD7302002010B5044686
:40534000B820FCF779F98005800DA102014389B2B820FCF777F910BD70B50D460146B020FCF770F9FF241D342046FCF765F940218843A90101432046FCF764F970BD70B57C
:40538000A124054624012046FCF756F90222002D01D0104300E0904301462046FCF752F970BD70B50D460146B020FCF74BF9FF2029460930FCF746F9A12424012046FCF7CE
:4053C0003BF90222002D01D0104300E0904301462046FCF737F970BD70B50C460546FCF72BF9204301462846FCF72CF970BDF8B516460D460746FCF71FF9014600202C00D7
:4054000003D104E06408401C80B2E207FAD08640A9430E43B1B23846FCF714F9F8BD0000024A1018405C8007800F70477302002010B50146B020FCF705F9FF202D30FCF7C0
:40544000FBF810BD8000FF30413070470246FF20052902D201484018805C70476E02002010B50146B020FCF7EDF8FF202930FCF7E3F810BD0A4600B501461046FFF7E6FF24
:4054800000BD38B50C46054600216846009108F0F9FE002804D1009928464C7000F09EFB38BD10B5044680780021FFF72DFE01212046FFF755F810BD436E002B0CD00B6014
:4054C000014660318B781370826E4266CA788A700021816608467047FF20704710B50346446E6033002C04D0846E002C04D0FF2010BD41669A7001E08166DA70002010BDB6
:405500000021416681667047406E002801D000207047FF20704770B50446C0790D46810610D5DF210840E07100F0BAFD0570218941804034218A8180618AC180A18A018131
:4055400001F0F6F970BD000010B50446FEF7E6FD01280AD1A1788820054A484380186030007FFDF737FA012801D000F0A5FA10BD7813002070B50D460446FDF7D3F8012821
:405580001CD02079042801D0072816D1E879AE7900020643A0783146FFF7A6FA012813D03246691C204600F035FA02212046FDF700FE01212046FEF7D3FF70BD012224216E
:4055C000204600F0C3FA70BD28214C2001552046FEF73EF970BD70B50D460646FDF77FFD002847D120213046FDF7DFFA3446687840346073E87820220002E081A978084397
:40560000E0816879010228790843218A814203D0F1791143F1712082E8790102A8790843618A814203D0F1791143F1716082687A0102287A0843A18AE180814203D0F17985
:405640001143F171A082A08A218A8000FBF7B2FA401E618A80B2814200D9608201213046FDF7AAFDE87AA97A000201430022304600F0DCFA70BD0000F8B50C460546FDF79F
:4056800051F8012849D0294EB07AC00709D02846403000900078002805D0102805D01F212EE01A212CE0002700E001272846FEF7ADF9002823D02E4680360822611C70689D
:4056C000FBF719FB7068617A20300172A17A417270682146183008220B31FBF70CFB21462846042213313430FBF705FB39462846FDF76EFF002810D1002F0FD012E0072166
:405700000322284600F022FAF28A08212846FDF741FA11212846FDF752FDF8BD06212846FDF750FD009801210176F8BD2413002010B5FDF78DFF10BD38B5044600200090E4
:4057400020790D46042801D007281BD12046FCF7E9FF012817D0684608F094FD002811D10C486A78807A00991040112210402075607E082210436076204600F079F9204603
:40578000FDF763FD38BD08222421204600F0DEF938BD0000241300207047000070B506460D460846FEF70EF804463046FEF7ABFC00280CD0142C04D32946304600F0C7F8E9
:4057C00005E00549A0000A58294630469047284608F0A8FD70BD0000FC05010070B50D460021002801D0002400E00C4C002C14D020464030C177807F032802D12046FEF71A
:40580000B5FD2046FFF7A0FE142D04D20449A800095820468847FEF7E1FC70BD981300204C06010010B5014640310C4609780E2903D1FDF751FF0120207610BD10B54021B4
:40584000095C0F2901D1FDF76AFF10BD4021095C0F2902D1002120304177704738B5044600220E4800920D46807A11210840C0060ED52046FEF758FC012809D0684608F0D6
:4058800001FD002803D12046009900F053F938BD2946204600F05BF838BD00002413002010B51021FDF781F910BD10B54978FDF75FFE10BD10B5FDF73AFF10BD0121203054
:4058C0004177704710B54021095C0C2901D1FDF743FF10BD10B54021095C0D2901D1FDF737FF10BD70B5044600790D46052803D0062801D0082802D12046FDF74BFE68785A
:405900004C21085509212046FDF75CFC2046FFF7C8FD2046FCF706FF0128A07805D0FFF7D9FC2046FEF702FE70BDFFF7DFFCF8E710B50446FF21FDF738F916214C200155DC
:40594000A078FFF7C7FC2046FEF7F0FD10BD70B50C460546FEF7E2FB002802D02078687570BD21782846FFF78CFD70BD70B5054648780C46032802D12846FDF716FE607890
:40598000122803D110212846FDF70FF970BD704738B5044600200D46009004212046FDF704F968782076E8780002A081A9780843A08168790002E08129790843E081607EAE
:4059C00004210843607680070CD4684608F05AFC00281CD12046009900F00EF9607E022108436076E079410611D5BF210840E07100F056FB00210090017021894180A189DA
:405A00008180217E4170E189C18001F074F838BD7047704770B50446C07815460A4600280AD00020E070C1B2A078FFF795F8A0782946FFF767F970BD0120F3E770B5054663
:405A4000042008700C468420415908222031601CFBF751F929462046042238310930FBF74AF90D2229462046FEF7F6FC002070BD70B5054609200C46087008220021601C93
:405A8000FBF742F9287D607004480922C07AA07029462046FEF7E0FC002070BD241300200B4610B501460B20187001221846FEF7D3FC002010BD0000FEB50024164F03E0D8
:405AC000002C01D0002500E03D462846FFF71CFD00281BD15F20405D002817D16A4601A92846FFF7E9FC002810D1019869460A7806782946FEF7B0FC022E07D1A878012116
:405B0000FFF72AFC09212846FDF75CFB641C2406240ED5D0FEBD00009813002010B50B46122119708178D977014601221846FEF793FC10BD10B50B46132119708178D9770F
:405B4000014601221846FEF787FC10BD38B50546002000900C46684608F094FB002801D0072038BD00980D210170447002222946FEF772FC002038BD0B4610B5014605201C
:405B8000187001221846FEF767FC002010BD0B4610B501460620187001221846FEF75CFC002010BD38B5054600200090684608F069FB002801D01F2038BD009C0220207064
:405BC0004C20405D6070A878E0772846FFF769FC022229462046FEF73FFC38BD10B50B46072119708178D977014602221846FEF733FC002010BD000010B50B460A490446D1
:405C000008880C221A704A795A709870000AD870C8881871000A5871062221461846FEF71BFC002010BD000024130020F8B50446403417460E460546E289617B8078FFF7B0
:405C40008DFA002F0DD100F02FFAE2896979FDF749F9FFF78BF8608A002800D00120FFF78EFBE388A08A984200D90346628A218AA878FFF755FAA08A218AC000FAF79AFF4D
:405C800081B2ED208000FBF7DDFCE089E188C0080A30081881B21920C001814200D90146A878FFF7E7FAA8783146FFF73DF801212846FEF755FCF8BD00B500F01FF800BD98
:405CC00010B50A4604460B491046FAF773FF4034C01C218A80B2814200D208464900081A81B20548E182C089002802D0884200D2E08210BD71020000641300204018400822
:405D0000704770B505460C46000702D5A0B2FDF707FFE80702D0200EFCF7A2FF70BD70B5054650C8FCF752FCFBF7B8FA2889C01F0300FBF7B3F90C07130B171A1D0B0B20BD
:405D40000B100C0BA0B23146FFF7DBFF70BD204600F000FC70BDFDF7A7FE70BD2046FCF7A4FD70BDFCF7BFFE70BDFDF7BFFE70BDFDF7BDFE70BDE0B2FDF7EEFF70BD000088
:405D8000F3B5002483B0064627460094019408200294FBF751FC05460640400713D55020FBF74AFCC0B20090700707D5009CA00803D1FBF7D9FA012800D101270022042003
:405DC0000099FEF7EBFB28074ED5A820FBF734FC0146654842890A434281002208200091FEF7DCFB300739D50098044340062CD5FF200930FBF720FCFF201D30FBF71CFC36
:405E00008006C00F0190FF200930FBF715FC00281BD00198002818D1544801214170FF20F130FBF709FC0321090288430146FF20F130FBF707FCA1200001FBF7FDFB022179
:405E40000143A1200001FBF7FDFB00981021884303D1FBF789FA012800D101270098C00602D50220FBF76CFDA8070CD53820FBF7E3FBC1B2B00702D508040443012700222B
:405E80000220FEF78BFBE8071DD02020FBF7D4FBC0B20090F0070BD000980221000604430098884303D1FBF75FFA012800D101270098800702D50220FBF742FD002201205C
:405EC0000099FEF76BFBE80605D50120FBF728FD1020FEF775FBA8062AD5FEF733FD244908800120FBF71CFD22490020087022490870FF200930FBF79FFB0090FF201D3060
:405F0000FBF79AFB80060099C00F00290DD000280BD116494870A1200001FBF78DFB02210143A1200001FBF78DFB2020FEF748FB680602D54020FEF743FB0720694608813D
:405F40000020009601944881002F07D069460EC90498002804D0002008F050FA05B0F0BD002008F06FFAF9E7D813002066020020780200200D02002061020020F0B587B009
:405F8000054605A81E461746019100900C9C04AB06AA02A903A800F078F92846FEF725FE21463046FEF710FE6846017A0398FEF7C3FB05A904A8FEF799FB6846027E2146F3
:405FC0003846FEF789FB07B0F0BD000070B50548C4782046FCF723FE05462046FDF7AEF8284370BD7813002070B5054884782046FCF71DFE05462046FDF7B8F8284370BDC1
:4060000078130020F8B5069E1F463478231FDDB23B460095FFF7B2FF3819001FFEF7F2FD0520FEF726FE0446012229460798FEF7C9FE3570E00701D00020F8BD1F20F8BDD6
:4060400070B51C4615460E46FEF7CFFD29463046FEF7BAFD0320FEF70CFE012229462046FEF7B0FE1F2070BDF8B5069D079E2C780094FFF783FF0120FEF7FBFD074600224D
:4060800021463046FEF79EFE3019FEF7A9FE241D2C70F80701D00020F8BD1F20F8BD0000004870473414002008B56A4600210B20FBF7F6FA6846007808BD0000F3B585B04D
:4060C0000746534CFEF73EFC21460290FEF701FB38800698C0070AD0FEF780FC054601460298FEF75DFCA04201D204463D804948807B00287ED0002508200699A8400842DD
:406100007DD0002D01D0002601E0424E20362846FEF769FC0190404800903046FCF702FB002819D1FF200930FBF786FA0390002812D0FF200130FBF77FFA03994000491CDB
:40614000484381B234480091814200D20090009A01990298FEF72CFC009A01990298FEF727FCA04202D20446019838802846FEF77BFC0190304640308178012901D0808ABE
:4061800000E0C08801990005020C0298FEF710FCA04202D2044601983880B079002813D02846FEF70FFC01901C480521C08AC000FAF700FD82B201990298FEF7F9FBA04236
:4061C00002D2044601983880308A002817D03079072814D12846FEF7B5FC00280FD02846FEF732FC06460146094A0298FEF7E0FBA04201E008E002E001D204463E806D1CBD
:406200002D062D0E00D177E7204607B0F0BD0000FFFF000078130020FF7F00002413002010B50B4C094923460833A160002142189278002A00D05A54491CC9B20429F6D363
:40624000FF21A0689A314843A06010BD040302017813002070B5059C049D2070060A6670060CA670000EE0704806D101400E0843207104221946601DFAF73DFD20460422B8
:4062800029460930FAF737FD70BDF8B5079C0E46E178069D09020160A77839430902016067783943090201602778394301602079611D4006400E30702079C009107004223B
:4062C0001846FAF718FD2146042209312846FAF712FDF8BD10B5FEF735FB084A916848408108C3084409414063405940C30F59404008C9070843906010BD000078130020FF
:406300000348C078002801D00020704701207047B415002010B5012200F016F810BD000010B5054802780121002A017002D10120FAF75EFE002010BD7C02002010B500229A
:4063400000F002F810BD0000F8B5204D0F4629781646012904D02978022901D01120F8BD0C2148431A494418E078A178884201D31220F8BDFAF782FB62780C2361685A432F
:4063800051188CCF8CC1E178601C491CE1706178491CC9B20170A278914201D1002101706868401C68602878012803D0FAF762FB0020F8BD02202870FAF75CFB002E03D010
:4063C0000020FAF715FEF3E70120FAE77C020020B415002010B51148002101704160C0220F48FAF791FC0E4890220021C030FAF78BFC182200210B48FAF786FC09481021DA
:4064000081700C21817306494160C03101610649816006494161FAF7D3FD10BD7C02002064140020B41500201F5D0000D9730000F8B50025114C01262F462078002811D005
:4064400001280FD0022802D0032813D111E000F017F8FAF713FB6068002800D12670FAF709FB07E02078002806D02078012803D000E02770002DE0D00020F8BD7C020020F6
:40648000FEB51F4D1F4E0027FF2400200C2141438919C978002901D0044602E0401C0228F4D3FF2C2AD0FAF7E9FA0C204443A41921780C2260685143081801460EC9029380
:4064C00001920091076047608760E078401EE0702078401CC0B22070A178884200D127706868002802D06868401E6860FAF7C2FAA1680029C8D068468847C5E7FEBD000021
:406500007C020020B415002010B5830A082B02D007F09EFF10BD00F0CFF810BD10B50C460146207800F042FC0028204603D000F005FF002010BD00F0B8FB1F2010BD10B5BE
:40654000820A082A02D008F031F810BD00F056F910BD0000F8B5044640782578000205430020694608702846FFF7E9FF012827D16946A0780978884222D01C498D4208D037
:40658000891D8D4205D0C91C8D4202D0C91C8D4204D11221284600F071F80CE00022022805D32079E178000201430A05120D12212846FFF7A9FF204607F08CFE1220F8BD05
:4065C0000B4EA80A08282A4631460AD0E01C08F037F8204607F07EFE3146284600F00AF8F8BDE01C00F018F9F3E700000D200000CC150020F8B50D46044600206946087081
:406600001A48844208D0801D844205D0C01C844202D0C01C844201D101200870A00A08280A462946204609D008F05CF8064668460078002805D0012815D110E000F006F920
:40664000F4E70022002D05D068782978000201430A05120D31462046FFF756FF03E03146204600F00BF83046F8BD00000D2000000148407A7047000028140020F8B50546E5
:4066800000200E4600906946082000F007FB002801D00720F8BD009C0F202070A670FFF7E7FFE0702571280A6071042060702146FF20FFF733FFF8BDF7B5064682B0002061
:4066C0004B4A4C4B00900420B11AF718964218D008DC002F0FD0012F0FD0052F0FD00D2F12D10CE0032908D005290CD006290AD0072909D101E0072006E00C2004E00520BD
:4067000002E00B2000E006206946001D00F0C6FA002802D0072005B0F0BD009D31462846039A00F085F8334804241338301803D0052801D0062805D10499A9710499090A49
:40674000E9710624039800284BD12949891F701A8E4227D006DC002F0BD0012F11D0052F3FD11CE0062823D009282CD00D2838D12FE028191B2181700021C170A41C0420CF
:4067800012E02E19B01C08220021FAF7BDFA1A481122817A1140B170C07AF07020E0FBF799FF01E0FBF7B8FF29198870641C18E02919891C0498FBF79DFF002801D068719C
:4067C0000FE0641D0DE02819801C082107F0D0FA06E009492819801C08221C31FAF78BFA08346C702946FF20FFF798FE93E7000015200000FEDFFFFF24130020C0B21F28A7
:4068000006D8401E034AC0B2105C0870012070470020704710080100D2B21F2A05D8034B9200D218403AD26B104770471807010070B504460E2016460D462070FFF718FF6F
:40684000A070E570280A2071667170BD70B50D46C1B2012014461F2911D88E000848214630184038C26B28469047002807D104482146F83830184038C26B2846904770BD9C
:406880009407010070B5154C0546212200212046FAF73AFA212212492046FAF72CFA114A1121907A0840C3060F48017802D53023194301E0CF2319400170907AC007207F56
:4068C00002D00721084301E0C008C0002077212221462846FAF70FFA70BD0000341400202F080100241300205414002010B5FBF799FF10BD10B5FBF7B2FF10BD002070476D
:406900000120704710B5FBF7FAFF10BD0020704710B5FBF7F6FF10BD0249007848710020704700002814002010B5FCF706F810BD38B504460020009069460E2000F0AEF925
:40694000002801D0072038BD00993E200870032088702078C870A07808716088000A487120798871A088000AC871A0790872E088000A4872207A88722089000AC8720A2005
:4069800048700320FFF7CAFD38BD38B50546002000906946172000F081F9002801D0072038BD009C3E2020700120A0702878E070A878207168882946000A60716878A07176
:4069C0002879E0712046083006220C31FAF793F9A879A073E8882146000AE073287A20742889000A6074A87AA0746889000AE07468792075132060700120FFF78FFD38BD62
:406A0000F8B5044600200E46009015466946082000F044F9002801D00020F8BD0099082008708E70CC70200A08714D7104204870FF20FFF773FDF8BD38B50C460021054699
:406A400000916946072000F029F9002801D0002038BD0099302008708D70CC70200A087103204870FF20FFF759FD38BD38B50546002000906946112000F010F9002801D05D
:406A8000002038BD009C3E2020700520A0702878E07028880822000A2071601D6968FAF72AF9A9680D200A7862734978A173607021460520FFF732FD38BD38B50546002003
:406AC0000C4600906946092000F0E8F8002801D0002038BD00991320087001208870CD70280A08714C71200A887105204870FF20FFF714FD38BD38B504460020009069464B
:406B00000C2000F0CBF8002801D0002038BD00990C20087020788870A078C8706088000A08716078487120798871A088000AC871A0790872E088000A487208204870FF2094
:406B4000FFF7ECFC38BD38B50446002000906946062000F0A3F8002801D0072038BD0099572008708C70200AC87002204870FF20FFF7D4FC38BDF8B5064600200C46009051
:406B800015466946082000F089F8002801D00020F8BD0099052008708E70CC70200A08714D7104204870FF20FFF7B8FCF8BD0000FEB507460020009010480E4601901546F1
:406BC0006946082000F06AF8002801D00720FEBD009C324620460199FFF72AFEA771380AE0710620002E03D1290A25726172082060702146FF20FFF791FCFEBD7B0C0000AC
:406C0000F8B5054600200E4600900C4F6946062000F044F8002801D00720F8BD009C324639462046FFF704FEA571280AE071062060702146FF20FFF771FCF8BD7C0C000081
:406C400010B5FDF7BFF810BD10B5FDF7D5F810BDF8B505460020074600900D4E6946142000F01CF8002801D00720F8BD009C3A4631462046FFF7DCFD1022A01DA918FAF70F
:406C80003AF8142060702146FF20FFF747FCF8BD1720000010B5FBF7EDFD10BD0A4610B5C1B2104607F0A6FA10BD10B507F01CFB10BD0000F8B50546C078AF78164C0002E8
:406CC0000743A07D26468000203E8019103004222946FAF710F8A07DB38E800082191032291D042B16D03550A07D0023400080190784A57D204610302B54A07D401CC0B20B
:406D0000A075042800D3A375B08E401CB086104600F005FBF8BD000010160020FEB5144C0025E17D204610300D54E07D26468000203E305807F0ECFAE07D401CC0B2E075ED
:406D4000042800D3E575B08E401EB0860948C07900280CD00095019511206A4602951081558129460A460020029B07F06BFBFEBD101600202814002010B5074900208875E8
:406D8000C8752039888605490872487288728882FAF7B8FA10BD0000101600206816002010B5FFF7E9FF002010BD00001B4B10289A792DD00CDC0C2823D004DC05281ED00D
:406DC000082829D124E00E2824D00F2824D121E0302818D004DC13281CD01A281CD114E03E2802D0572817D111E0500614D5491E012088405979C0B201420BD10CE0012015
:406E000006E0802004E0202002E0022000E00420024201D001207047002070472814002010B50B460178401C197001460622581CF9F761FF10BD034610B508460822194627
:406E4000F9F759FF10BD704770477047427812020A8003781A430A8080788870704770B50D460446014610222846F9F744FF214610221031A818F9F73EFF70BD42781202D9
:406E80000A80007802430A80704710B50B4641780A021A800178801C0A431A8001461022981CF9F728FF10BD427812020A80007802430A807047427812020A80007802435D
:406EC0000A8070477047427812020A80007802430A807047427812020A8003781A430A80807888707047007808707047427812020A80007802430A80704710B50B46017857
:406F0000401C197001460622581CF9F7F4FE10BD10B502780B460A701F2A03D8411C581CF9F7E9FE10BD00780870704770B5054640780C46000208802978062208432080D8
:406F4000E87800026080A978084360802879207168796071A879A071E91DE01DF9F7CBFE687B6073A87BA07370BD0022835C0B70521C491CD2B2082AF8D370477047034611
:406F800010B5084606221946F9F7B5FE10BD7047704710B502780B460A701F2A03D8411C581CF9F7A8FE10BD70B5054640780C46000208802978082208432080A91C201D3B
:406FC000F9F799FEE87A102200026080A97A08436080294620460C310C30F9F78CFE70BD02780A7042784A70807888707047427812020A8003781A430A80C27812024A8070
:40700000807802434A80704710B504460088FBF711FF002808D0A07814280DD006DC05280AD0132806D107E0022010BD1A2803D03B2801D0122010BD002010BD0078012821
:4070400001D9122070470020704700207047002070470020704710B50088FBF7EBFE002801D0002010BD022010BD10B50088FBF7E1FE002801D0002010BD022010BD10B53C
:407080000088FBF7D7FE002801D0002010BD022010BD002070470078272801D912207047002070470078012801D9122070470020704710B5017902884388042921D8012955
:4070C00014D09A421DD80124A403A34219D8A02A03D2022915D0032913D0202A11D3817B03290ED8012901D0042902D18179012907D84179012904D8407B410701D0C008E5
:4071000000D0122010BD00781F2801D9122070470020704701784A0941785201114382780A43C178114302790A43417911438279C0790A43104300D01220704700207047ED
:40714000002070470020704700207047002070470178272905D84178252902D88078072801D9122070470020704710B50088FBF761FE002801D0002010BD022010BD10B533
:407180000088FBF757FE002801D0002010BD022010BD10B504460088FBF74CFE002804D0A078012803D9122010BD022010BD002010BD0020704710B504460088FBF73AFECC
:4071C000002804D06088002803D0002010BD022010BD122010BD000010B50B48017A01290ED0C17A00290CD001210172407A064BC000403BC1184A884968185CFAF783F8E3
:4072000010BD0021017210BD6816002030B50D4B9C7AE5001C46403C6055987AC00000194160987AC00000194280D87A401CD872987A401CC0B29872092801D3002098726D
